:1000000000000320D101000061920100199201005B
:100010001992010019920100199201001992010030
:1000200019920100199201001992010061920100D8
:10003000619201001992010025B8010029B8010060
:1000400061920100619201006192010061920100E0
:1000500061920100619201006192010061920100D0
:1000600061920100619201006192010061920100C0
:1000700061920100619201006192010061920100B0
:1000800061920100619201006192010061920100A0
:100090006192010061920100619201006192010090
:1000A00039860100458601006192010061920100DC
:1000B000619201006192010061920100E59E0100E0
:1000C0006192010061920100619201006192010060
:1000D00061920100D5A601006192010061920100C8
:1000E0006192010061920100619201006192010040
:1000F0006192010061920100619201006192010030
:10010000619201006192010061920100619201001F
:100110005D660100C5A901006192010061920100C4
:1001200061920100619201006192010061920100FF
:1001300061920100619201006192010061920100EF
:100140006192010061920100413F01006192010052
:1001500061920100619201006192010061920100CF
:1001600061920100619201005186010061920100DB
:1001700061920100619201006192010061920100AF
:10018000619201006192010061920100619201009F
:10019000619201006192010061920100619201008F
:1001A0006192010061920100619201005D8601008F
:1001B000619201006192010061920100619201006F
:1001C000619201006192010061920100619201005F
:1001D0005C4B4CF2205210B51A804DF628121A8052
:1001E00000BF00BF19F040F8574B4FF030621A6063
:1001F000564A9A60564ADA60564B4FF470021A60BB
:10020000554B564A1A60564B1A78110703D51A787F
:1002100042F008021A70534B5349AA221A70534AEB
:10022000534B8B4204D252F8040F43F8040BF8E707
:10023000504B514900228B4202D243F8042BFAE77B
:100240004E494F4A002352F8230041F8230001335E
:10025000742BF8D14B4B4C4A802103F8011B93427D
:10026000FBD14A4B454A1A60494B8A221A70A3F5C2
:10027000805324225A70A0221A709A799207FCD5D2
:100280009A79D406FCD4434A937903F00C03082BE3
:10029000FAD1414B60221A7002331A78802AFCD1BD
:1002A0003C4B01221A715D225A719A799006FCD555
:1002B0009979384A4906FBD5384B394919600021EC
:1002C000596020231370937903F00C030C2BFAD19F
:1002D000344B354A1A60354A354C136813F4807331
:1002E00003D123604FF4A8531360324B324A1A6093
:1002F00000225A60072243F8042C304AC3F80C2D20
:1003000062B619F02BF92368DA0705D52C4819F0E5
:100310008FF82C4B2C4A1A602C4B1B785B0609D5A6
:10032000284C294B22689A4204D1254819F080F8BC
:100330000023236018F09EFF20F0EEF81BF08EFCE7
:10034000FEE700BF0E20054030800440823F0400DD
:100350000100002B88ED00E0002008E0030000858C
:1003600002D0074000E00740D41EFF1FB4CD0300B9
:100370003007FF1FD81EFF1FF08C01200002FF1F57
:100380000000000000E400E064E400E008ED00E0AC
:10039000005006400040064001E007404480044011
:1003A0000000060204800440C010070010D0034083
:1003B00014D0034014E000E01FBF02000000202022
:1003C000067287631CE00340A5C3945A00F00740FF
:1003D000FFFFFFFFFFFFFFFFFFFFFFFFFFFFFFFF2D
:1003E000FFFFFFFFFFFFFFFFFFFFFFFFFFFFFFFF1D
:1003F000FFFFFFFFFFFFFFFFFFFFFFFFFFFFFFFF0D
:10040000FFFFFFFFFFFFFFFFFFFFFFFFDEF9FFFF23
:1004100010B5054C237833B9044B13B10448AFF33E
:1004200000800123237010BDD81EFF1F00000000B4
:10043000B0CD0300084B10B51BB108490848AFF315
:1004400000800848036803B910BD074B002BFBD0A0
:10045000BDE81040184700BF00000000DC1EFF1F71
:10046000B0CD0300D41EFF1F0000000090ED007A05
:10047000D1ED007AB4EEE77AF1EE10FA03D4CCBFF6
:100480000120002070474FF0FF3070472DE9F04FFA
:10049000DFF89880DFF898E00023012108F57F7AE3
:1004A00040461A46D146CEF800309C461F461E46AE
:1004B0001D461C46C8F80010C8F8FC1303E0BC46F3
:1004C00059463746464685EA020802EB410B84EA64
:1004D000020583EA02040BEB840303EBC50303EB81
:1004E000081303EB461303EB871303EBCC1340F81D
:1004F000043F8245934649F8043F62460B46DED1ED
:100500000120094A002303E00133B3F5807F05D0C1
:1005100052F8041F8142F7D14EF820300130B0F577
:10052000807FEED1BDE8F08F18F500201CF500208B
:100530008818012061B1074A52F8200052F8213092
:1005400010B40344044C54F823005DF8044B704786
:1005500008467047881801201CF50020002A40D06A
:100560002DE9F047174606460D4601E0013F33D01E
:10057000B04616F8014B20F015F82044A946437800
:1005800015F801AB03F00303022B08BF203C20F059
:1005900009F850445246437803F00303022B08BF86
:1005A000AAF120029442E1D098F800401FF0FAFF2F
:1005B0002044437803F00303022B10D099F8005035
:1005C0001FF0F0FF2844437803F00303022B08BF19
:1005D000203D601BBDE8F0870020BDE8F087203C8F
:1005E000ECE70020704700BF70B52D21044621F0D4
:1005F000A7FC0546204621F0E3FEA5B16E1C30465F
:100600001FF0ECFE0F2804DC304621F0D9FE022852
:1006100001D9002070BD1FF0C5FF6B7818444378E6
:100620005A07F6D0281BC31E042BF2D8251807E062
:100630001FF0B8FF14F8013B184443785B07E8D07B
:10064000AC42F5D1012070BD38B5054621F0B8FEA9
:1006500020F00203042B044603D0082801D0002018
:1006600038BD1FF09FFF2B78184443789907F6D0C8
:100670001FF098FF6B78184443789A07EFD01FF06B
:1006800091FFAB78184443785B07E8D51FF08AFFE9
:10069000EB78184443785807E1D5042C1ED01FF09E
:1006A00081FF2B79184443789907D8D01FF07AFF3F
:1006B0006B79184443789A07D1D0062C0ED01FF0DE
:1006C00071FFAB79184443785B07C8D51FF06AFF08
:1006D000EB7918444078C0F3800038BD012038BD64
:1006E000F8B504462038C0B2BF28164600F2A680EE
:1006F000A4F123029E2A00F21482DFE812F0BC006B
:10070000BC001202120212021202BC0012021202F9
:10071000BC00BC00BC001202E300E300E300E30005
:10072000E300E300E300E300E3000B020B020B0233
:100730000B020B02E300120204020402F701F701AC
:10074000EA01EA01DD01DD01C901C901C201C201FD
:10075000AE01AE0112021202A901A901A401A40175
:100760009F019F01120212021202120212021202D1
:1007700012021202120212029A019A0195019501C7
:1007800090019001120212021202120212021202CF
:100790001202120212021202830183017601760113
:1007A0006301630112021202120212024A014A019B
:1007B000300130011202120212021202120212025F
:1007C0001202120212021202120212021202120289
:1007D0001202120212021202120212021202120279
:1007E0001202120212021202120212021202120269
:1007F0001202120212021202120212021202120259
:100800001202120212021202120212021202120248
:100810001202120212021202120212021202120238
:100820001202120212021202120212021202120228
:1008300012021202120212022101FB001846079B4B
:1008400004F00102002701250A6035601F60089B43
:10085000B7491F60052218F08FF9069932220A6005
:10086000099A28231F2C137024D8B2490A9821F022
:1008700045FD2846F8BD1846079B04F001020025F7
:1008800001270A6037601D60089BA9491D60052289
:1008900018F072F9069932220A60099A3C23137003
:1008A000A4490A9804EBC40401EB440121F026FD9D
:1008B0000120F8BDDF2CF3D99F490A9821F01EFDD5
:1008C0002846F8BD04F001024FF0010E0C27042564
:1008D0001846079B0A60C6F800E01F60089B944911
:1008E0001D60052218F048F9069A32231360099A10
:1008F0001370D5E70120914A086015689048914926
:1009000050F825003060079D08688F4928600898D6
:100910000968016012688D4902EB420201EB820115
:10092000184621F0EBFC2F2121F00AFB08B100232F
:100930000370069964220A60099A32231370AFE7A4
:100940001846079B0225002201270A6037601D60B8
:10095000089B77491D60052218F00EF9E9E7184653
:10096000079B04F001024FF0010EC8270A60C6F889
:1009700000E01F60089B6E49322505221D6018F0BB
:10098000FBF84FF4167206990A60099A1E23137039
:1009900086E71846079B04F001024FF0010E4FF462
:1009A00016750A60C6F800E01D60089B604996272E
:1009B00005221F6018F0E0F8069A1560099A1E23B8
:1009C00013706DE704F001024FF0080E0A606049F1
:1009D000C6F800E08027402518460622079B1F60C6
:1009E000089B1D6018F0C8F8A3E704F001024FF05F
:1009F000080E0A606C27242518460522C6F800E078
:100A00005449EBE704F001024FF0080E0A6040275A
:100A1000202518460522C6F800E04F49DEE704F01D
:100A200001024FF0040ED1E704F001024FF0040E72
:100A3000DFE704F001024FF0040EE7E704F00102E3
:100A40004FF0020EC2E704F001024FF0020ED0E7B1
:100A500004F001024FF0020ED8E704F001024FF05B
:100A6000010E202708250A603149C6F800E0184623
:100A70000522079B1F60089B1D6018F07DF864220B
:100A800081E704F001024FF0010E40271025EAE74C
:100A90001846079B04F001024FF0010E10270A6070
:100AA000C6F800E01F60089B2149042505221D604F
:100AB00018F062F8322266E704F001024FF0010EEE
:100AC0000A608027402518460622C6F800E0204923
:100AD000CFE704F001024FF0010E0A606C272425D5
:100AE00018460522C6F800E01A49C2E704F00102E0
:100AF0004FF0010E102708250A6018460522C6F897
:100B000000E01549B5E704F001024FF0010E40275F
:100B10002025F1E704F001024FF0010E0327002524
:100B2000D6E622460D49022015F028FF0020F8BD28
:100B3000FCEC0200E0580300A0680300F88A0020E3
:100B400044260300C8C20020A0410120D82603008B
:100B500014ED02000CED020004ED02001CED020099
:100B60002DE9F04300F1FF3C00F1030E00220023C9
:100B70009F011CF8018F960147EA9267B6F12002A7
:100B800047F1FF334FF0000912EB080243EB090372
:100B9000F445EDD1130A160C8A704B7007300E70B5
:100BA000002200239D011EF8016F940145EA926521
:100BB000B4F1200245F1FF33002792197B417045C3
:100BC000F0D1100C130A4A71C8700B71BDE8F083A4
:100BD000F0B500F1FF3C00F1020E002200231F02DD
:100BE00047EA126716021CF8012F002392197B4175
:100BF000F445F4D1C2F38547C2F30536C2F3851339
:100C000002F03F0220332032203720368B70CA702A
:100C100005300F704E70002200231D0245EA126558
:100C200014021EF8012F002312196B417045F4D1F4
:100C3000C2F38544C2F30530C2F3851302F03F02CC
:100C400020342030203320320C7148718B71CA71EE
:100C5000F0BD00BFF0B589B00F460A22014601A8D9
:100C600017F08AFF01A82D2121F06AF9F0B10023C5
:100C7000044600F8013B1FF0B1FB04AD064601A994
:100C8000284621F017F90522114917F075FF092EA2
:100C9000CABF303663788DF8176039462846D8BF0A
:100CA0008DF81730FFF75CFF09B0F0BD04AD01A966
:100CB000284621F0FFF80522054917F05DFF302393
:100CC000394628468DF81730FFF74AFF09B0F0BDC6
:100CD0003CED020070B586B00D46064621F070FB73
:100CE000082801D906B070BD04463146224601A845
:100CF00017F042FF01AB18190922044917F03CFF15
:100D0000294601A8FFF72CFF06B070BD38ED0200A0
:100D100030B587B000240D4603A9ADF81440039404
:100D2000049401940294FFF753FF03A92846072275
:100D300017F022FFEC712846202121F001F900B1C3
:100D400004709DF81320302A19D0A2F13A03052B24
:100D500001AC09D920460E4921F014F82146284655
:100D600021F0CEF807B030BD303A2046094921F0D5
:100D700009F82146284621F0C3F807B030BD00230A
:100D800001ACAB712146284621F0BAF807B030BD5E
:100D900048ED020044ED020030B585B000240D4658
:100DA00001A9ADF80C4001940294FFF711FF01A8CE
:100DB000202121F0C5F800B1047001A9284621F0D6
:100DC0009DFA05B030BD00BF49B3F0B44FF6FF73D4
:100DD000471810F8016B0821802207E0CCB1ABB2B4
:100DE00083F4084383F0100301390DD05D0013F440
:100DF000004F02EA060405F101054FEA6202EDD157
:100E000054B10139ABB2F1D18742E2D11846F0BCFE
:100E100070475B009BB2E3E75B009BB2E4E74FF6F1
:100E2000FF70704770B50C46054689B21646FFF74D
:100E3000CBFF2B5DB3EB102F01D0002070BD2C44F5
:100E4000C0B263787040181AB0FA80F0400970BDE3
:100E500070B5064621F0B4FAFF233044B0421CD0EE
:100E600016F8011B082205E08CB1EBB283F0C60333
:100E7000013AF3D05D0013F0800F01F0800405F11A
:100E800001054FEA4101EFD124B1EBB2F0E75B007D
:100E9000DBB2EBE75B00DBB2EAE7D8B270BD00BFC4
:100EA00000B587B00B460246064901A820F06AFF4C
:100EB00001A8FFF7CDFFFF2808BF002007B05DF8AD
:100EC00004FB00BF4CED0200F8B50F461149064681
:100ED00021F0AAF890B1104B1D68002D16DD0F4CC3
:100EE00005EB850504EB450501E0A5420ED0214642
:100EF000304621F099F80A340028F6D131460848E6
:100F0000FFF7CEFF012338701846F8BD00231846BE
:100F1000F8BD00BF888A0020AC8A0020801FFF1F18
:100F2000ACBD002070B50E49064621F07DF890B1A9
:100F30000C4B1D68002D10DD0B4C05EB850504EBFB
:100F4000450501E0AC4208D02146304621F06CF85E
:100F50000A340028F6D1012070BD002070BD00BF0A
:100F6000888A0020AC8A0020801FFF1FC8280DD06F
:100F7000B0F5FA7F12D0B0F57A7F17D0B0F5FA6FDE
:100F800027D0274B274800221A607047264B1B6842
:100F9000ABB1234B254801221A607047224B1B68D6
:100FA00093B11F4B224801221A6070471E4B1B68E9
:100FB000002B25D01A4B1F4802221A607047184B8D
:100FC0001D4805221A607047154B1C4806221A60FE
:100FD00070471B4B1B68002B0ADD1A4B1B683BB983
:100FE000114B1B68B3B10E4B174802221A607047B1
:100FF0000D4B1B684BB10A4B144804221A60704712
:10100000074B134806221A607047054B114804220B
:101010001A607047024B104807221A60704700BFE1
:101020005C8A0020E889FF1F0C8AFF1F9008FF1FC1
:101030000808FF1F5C08FF1F3407FF1F1C08FF1F65
:10104000C408FF1F488AFF1F9408FF1FA808FF1F3E
:101050006007FF1F4007FF1FF807FF1F2DE9F04340
:101060006D4B6E491C686E4D31F814206D4E28682A
:101070008DB00023002A0493029303930593ADF8E7
:1010800018300793089309930A93ADF82C3014BFD6
:101090004FF0020E4FF0010E336800287BD0013272
:1010A00021F81420002C4CDD5F4E3768BE4548DC2B
:1010B0005E4BD3F8008018F804301F2B76D9DF2B55
:1010C00000F2A1805A4903EBC30301EB43010DF188
:1010D0000809484620F0EEFE0CABC9EB00001844AE
:1010E0004444002300F82A3C14F8013C1F2B40F232
:1010F0008880DF2B00F289804D4903EBC30301EBAD
:10110000430107AC204620F0D5FE0CAB001B184471
:10111000009400243A464B46464900F8164C0620F7
:1011200015F02CFC444A454F13684549346001339F
:101130004FF0FF302C603C60136008600DB0BDE8DC
:10114000F083404A3D4E12683768125DBA42F5DAC4
:101150003D4A1268013A9442F0DA0128EEDD334A42
:10116000DFF8FCE0126812F804C03EF91CE0734599
:101170000BDD0134354B33F814E0BEF1000F17D00E
:1011800031F81410A1B9042812DC2D4B00221A608A
:101190000DB0BDE8F083244A1268002A82D02C4E9C
:1011A00036F81420013226F814207BE720498EE718
:1011B0000121234823F814100160135D1F2B26D949
:1011C000DF2B26D81A4903EBC30301EB430107AC1D
:1011D000204620F06FFE0CAB001B18440094002446
:1011E0003B4601221B4900F8164C062015F0C6FBB1
:1011F000194A0D491368346001332C600C60136088
:101200009CE70B497DE7154961E7144979E70849EF
:10121000DDE71249DBE700BFA82CFF1F0420FF1FFA
:10122000A48A0020208AFF1F6884FF1FD0E20020CC
:10123000E058030054ED0200BCE20020F4E8002076
:101240001C8AFF1F6CDC00205C8A0020B82CFF1F6A
:101250004C7FFF1FACED020088410120A068030015
:10126000E4E9020030B4134D2B68DBB107EE900ABD
:1012700007EE103AF8EEE77AF6EE006A67EEA67A25
:10128000B8EEC77A0246E7EE267A0B49072077EEDA
:10129000A67AFDEEE77AC5ED007A17EE903A30BCFB
:1012A00015F06CBB286002460449072030BC15F0DD
:1012B00065BB00BFF4E8002030EE0200F4ED020050
:1012C00000B593B008A90DAB04930391029101916D
:1012D000009109AB07AAFFF703FA00B1079813B012
:1012E0005DF804FBF0B5044693B0002B4ED11646D2
:1012F0000268002A0F46C0F2AB8000F09C80804D4F
:101300008049286809688842C0F283807E4D1A4669
:10131000002323607D4B28781C787D4B4440E107F7
:1013200058BF80F00100387018707A4B1B688BB181
:10133000002A00F0BB8029781F297AD9DF2900F222
:10134000AA80754B01EBC10103EB410373490720F0
:1013500015F014FB28780BA90AAA0DAF0DF11F0593
:101360000CAC334601910092049709AA03950294AC
:1013700008A9FFF7B5F96A4B0B98099A1B6802FB9D
:1013800000F09842A8BF184613B0F0BD6549086840
:10139000FFF7ECFD0B68644AC82B106079D0B3F5F9
:1013A000FA7F4AD0B3F57A7F00F0A3805F4B1B68C9
:1013B000002B40F3A0805E4B5E4A19685E4B00290B
:1013C00018BF13465D4A5E4912680B60002A55D06B
:1013D0004C4B4B4A1B6803EBD3735B101360C35C2D
:1013E000494D1F2B2B7047D9DF2B56D8554803EB9F
:1013F000430300EB830015F01BFF15F077FC454B12
:101400001B680BB32B781F2B19D9DF2B5DD94E4AE4
:1014100016E00244444B9142A8BF11461B68296064
:101420005B5C394D1F2B2B702CD9DF2B47D94748DC
:1014300029E0394B8AE7344D6CE7454BC2E7364A21
:101440004449072015F09AFA0020206013B0F0BD3F
:101450002B48016800297FF759AF334B2A4D1B6891
:101460000A4422EAE27202609B5C2B701F2B16D9A1
:10147000DF2B30D9354813E03248BCE7204913460A
:101480000A60ACE72F4815F0D3FE15F02FFC324A66
:101490003EE7324B96E72C4B58E72C48ABE7294800
:1014A00015F0C6FE15F022FC2D4A31E72B781F2BD4
:1014B00017D8194A2B49072015F060FA4AE7214846
:1014C00003EB430300EB8300DDE7134A03EBC303A5
:1014D00002EB4302B4E71B4803EB430300EB83003A
:1014E000DEE7DF2B09D80C4A03EBC30302EB430210
:1014F000E0E71D4B66E70F4B64E7134ADAE700BFEE
:10150000A82CFF1F5C8A00202C8AFF1FDD2CFF1FE8
:101510003C84FF1F4407FF1FE058030008EF020050
:10152000208AFF1F9C410120D0E20020C408FF1F39
:10153000488AFF1F9C08FF1F4808FF1F7007FF1FF6
:101540006CDC0020E0A60300A068030060B103008B
:101550002408FF1F94EE020088EE02001408FF1F0B
:101560007CEE0200CCEE02007008FF1F274B1B78B8
:10157000072B13D8DFE803F004180C320414243CC2
:10158000313804280AD8224BC8221A603920704703
:10159000A0F13303012B32D9372830D02E207047E9
:1015A00020F00403312BEED0A0F13203022B01D93D
:1015B0003628F3D1164B4FF4FA721A603A2070476E
:1015C00020F00403312BDED0322BF3D0A0F1330214
:1015D000012A14D9372812D0332B10D0342801D047
:1015E0003828DBD10A4B4FF4FA621A603C2070476E
:1015F00020F00403312BC6D0322BEDD1DAE7044BB7
:101600004FF47A721A603B20704700BFAC08FF1F8E
:101610009C41012008B514F03FFF0C4B1B78032BB5
:1016200009D00B4A0B4903EBC3031A440720BDE85A
:10163000084015F0A3B9084B08491A68072015F0AF
:101640009DF9074B01221A6008BD00BF7CBB00203A
:101650009CE902003CEF0200EC07FF1F84EF020050
:101660001484FF1FF8B5294A294B2A4F2A4E2B48CC
:101670002B492C4DDFF820C1DFF820E10024146055
:101680001C60294A294B3C60346004600C60146083
:101690001C60274F274E28482849294A294B2C608F
:1016A000294D3C60346004600C6014601C60274F5E
:1016B000274E28482849294A294B2C60294D3C604F
:1016C000346004600C6014602749284A1C60284F6D
:1016D000284B294E29482C6000253C6034600D6061
:1016E00015601D60CCF80040CEF80040056014F095
:1016F000D3FE234B234F1C60234E2449244A254B01
:10170000386034600D6014601C60F8BD0042012038
:101710001CFD0020F0E80020480E012008430120B5
:10172000ECF400208C16012068DC002008C50020A5
:1017300080180120901C0120901D01208C81012027
:10174000EC41012094EC00206C410120DCE40020FD
:10175000A4BD0020400E0120B0C1002070DC00209C
:1017600010C80020D8E300207841012080BB002071
:10177000BCE200209CBB002088410120B4EC00208A
:10178000BC8A0120E8C300201CEB002020EB0020D5
:10179000CCEC0020E4410120ACC10020A441012098
:1017A0002D4ADFF828C12D492D48F8B50024DFF86F
:1017B00020E12C4B2C4F2D4E2D4D1460FF228CF828
:1017C0000040CEF800403C6034602C600C801A7001
:1017D000046014F061FE274A274B284D14601860FE
:1017E000274F2849284A294B2E68294D3C700C70F8
:1017F00014601C60274F28482849294A294B2C602F
:10180000294DDFF8D0E03C6004600C6014601C607F
:10181000264A274B27482849284F2C602025CEF8F8
:1018200000401C605C6004600E60146054603C60AA
:10183000FFF718FF21462A4621481FF087FA2A465B
:10184000214620481FF082FA2A4621461E48BDE85C
:10185000F8401FF07BBA00BFB88A0020B48A00208D
:10186000EC8A00200908FF1F98BB0020508A002046
:10187000A888FF1F6C8A0020981C01205808FF1FB1
:1018800058C9002050C90020ECC300200CC500201E
:101890007C410120CC410120941E0120C4C20020C3
:1018A000C8EC0020CCE20020B04101208C41012096
:1018B000A485012038C900203CC900209C85012056
:1018C0000420FF1FB82CFF1F4C7FFF1FA02E0120FC
:1018D000848A00209C4101202DE9F04383B014F05C
:1018E000DBFD984B984A1B689849994D994C9A4E44
:1018F000C01AA2FB0032920B984815F0F7F8984BEB
:10190000DFED987A93ED007A77EE677A17EE900A1A
:101910001EF03CF8944A954B17681B6800930246EA
:101920000B469348394615F0E1F8924B18681EF0C3
:101930002DF8914B1B68009302460B468F4815F01B
:10194000D5F88F4B8F4A904912681B6809688F48F9
:1019500015F0CCF88E4B18681EF018F88D4B1B68EC
:10196000009302460B468C4815F0C0F8296822689F
:1019700033680A441344002B15DD884815F0B6F887
:10198000874815F0B3F8326823682968854815F050
:10199000ADF8854A854920682B681268096800906F
:1019A000834815F0A3F8834C834E844D2168326838
:1019B0002B680A441344002B17DD784815F096F87D
:1019C0007F4815F093F833682A6821687D4815F040
:1019D0008DF87D4B7D4A7E497E481B6812680968F8
:1019E00015F084F86D4815F081F87B4C7B4E7C4DEA
:1019F000216832682B680A441344002B17DD6748BE
:101A000015F074F8774815F071F833682A68216882
:101A1000754815F06BF8754B754A764976481B6822
:101A20001268096815F062F85C4815F05FF8734CAD
:101A3000734824680068734B734A74491B681268C2
:101A400009688DE81100724815F050F8534815F0F8
:101A50004DF8704815F04AF86F4B1A68002A06DDF9
:101A60006E4B6F48196891FBF2F115F03FF86D4B22
:101A70001A68002A06DD6C4B6C48196891FBF2F17C
:101A800015F034F86A4B1A68002A06DD694B6A487B
:101A9000196891FBF2F115F029F8684C2268002AC8
:101AA00006DD674B6748196891FBF2F115F01EF8E7
:101AB0006268002A06DD624B6348596891FBF2F1C7
:101AC00015F014F8614B1A68002A06DD604B614876
:101AD000196891FBF2F115F009F85F485F4F15F0B6
:101AE00005F85F4815F002F83B68002B1FDD5D4EDE
:101AF0005D4DDFF88881DFF874910024D8F800305C
:101B00005A491B5D1F2B07D9DF2B88BF584903EBB0
:101B1000C30398BF09EB430135F8023F554836F837
:101B2000022F14F0E3FF3B680134A342E6DC524885
:101B300014F0DCFF15F05EF803B0BDE8F04315F0DB
:101B400057B800BFE8C3002073B2E745A02E0120BC
:101B500080180120901C0120901D0120C8EF020078
:101B6000784101206666BE41ACC10020A44101203D
:101B700028F0020020EB00201CEB002078F002008F
:101B800008C5002068DC002000420120B4F00200FB
:101B90009CBB002010C8002004F1020078BB0300A9
:101BA0003CF1020044F10200084301201CFD00202A
:101BB000B4F102006C410120EC4101208C81012034
:101BC00020F2020028F202008C160120B0C1002091
:101BD000F0E8002098F2020094EC0020A4BD002060
:101BE000DCE40020D8F20200E0F20200ECF4002075
:101BF00070DC0020480E012050F30200BC8A012056
:101C0000BCE20020884101208C08FF1F6C08FF1FE8
:101C100090F30200E8F302000CC50020ECC30020A2
:101C200004F40200CC4101207C4101202CF402008C
:101C3000C4C20020941E012054F40200A485012097
:101C40008C41012080F40200A8F402009C85012050
:101C5000B0410120D0F40200AC1503005C8A0020E2
:101C6000F8F402000220FF1F4A7FFF1FE058030024
:101C7000A06803007CF5020018F50200D0E2002005
:101C80002DE9F04F454B1B68ADF2244D002B02931C
:101C90000BDD00231D46041F44F8045F3F4E3668E9
:101CA0000133B3EB860FF7DB0296029B4FEA430A40
:101CB000BAF1000F6DDD1346043B00220693029B30
:101CC0000790019210460A1F0392814607AA1E46FA
:101CD0009D000DF1200BAA450BDA05F1804001387B
:101CE0000BEB8A010BEB8000043941F8049F814221
:101CF000FBD10399DDF8188051F8043F049605954F
:101D000046465546039107AF00249846924656F83A
:101D1000040F013410B14146FEF70CFCAC4247F809
:101D2000040FF4DB059D019B049E9D4252460BDD92
:101D3000019BEB1A0BEB83030BEB850153F8040DAE
:101D400041F8040D9B45F9D1019B23B107AB43F842
:101D5000049F9342FBD1029B002B0FDD079B07AC36
:101D6000181F002150F8045F54F8043F6B400360D3
:101D70000A4B1E680131B5008D42F3DC019B4FEA2E
:101D8000460A01339A45019302F1040201DD0296ED
:101D9000A1E70DF2244DBDE8F08F00BFBC08FF1F86
:101DA0002DE9F047DFF89880D8F800E04FEA4E0CB4
:101DB000ADF5006DBCF1000F0DF5806607DD334613
:101DC00006EBCE01002243F8042B8B42FBD1012508
:101DD000002835602DDDDFF86CA0DFF86090074645
:101DE0000024BCF1000F06DD0DEBCE026B4643F87C
:101DF000044B9342FBD15AF8043F00930F48012350
:101E0000324669460193FFF73BFFD8F800E04FEAFE
:101E10004E0CBCF1000F09DD084B324609EBCE0039
:101E200053F8041B42F8041B9842F9D10135BD4216
:101E3000D7DD0DF5006DBDE8F08700BF9081012072
:101E4000BC08FF1F1CF50020F8B50C4F3B68002BA9
:101E500012DD06460D46002409E02968FEF76AFBFC
:101E600045F8040B3B680134B4EB430F04DA304609
:101E7000002EF2D13046F3E7F8BD00BFBC08FF1FCB
:101E80002DE9F04FB84B1E687500ADF6244D002DBE
:101E90000DF5C46740F34281F2003B46B8180021BB
:101EA00043F8041B8342FBD10DF502642244234610
:101EB000002143F8041B9342FBD1AC4B1B680093F9
:101EC0001A46002A4FF001033B6040F33F814FF078
:101ED000000ADFF8B4B2DFF8A092D046002D09DD89
:101EE00007EBC6063B46224653F8041B42F8041B88
:101EF000B342F9D15BF8043F214659F82300FFF7BC
:101F0000A3FF994B1E68750005F1FF3CBCF1000F63
:101F100009DD05F18043013B04EB830353F8042DF5
:101F20005A60A342FAD1002DC4F800800DDD394675
:101F3000204607EB850E002201E050F8042F0B68C5
:101F40005A4041F8042B7145F7D1009B0AF1010A70
:101F50009A45C3D1CDF804C0002D40F3F0800DF5B3
:101F600084639E461A4607EB85003B4653F8041BE4
:101F700042F8041B8342F9D1019B002B40F3DB8024
:101F8000019B0EEB830252F8041D5160013BFAD114
:101F9000002DCEF8003040F3C88008AA029200233A
:101FA000013357F8041B42F8041B9D42F8DC009BE8
:101FB0009E4240F38280029B0199039605F180487E
:101FC00008F1FF3803EB88080EEB81030593009BB3
:101FD00007944FF0FF3104919A46F146009B002B85
:101FE00057DB009B029E0AF1FF32C3EB020B544603
:101FF000002756F8040B20B15D4B53F82410FEF770
:1020000099FA013CA34587EA0007F2D1002F40D09E
:10201000002D40F39E8007AC0DF21C4B87AE5BF8A1
:10202000041F3846FEF786FA54F8043F58404445EA
:1020300046F8040FF3D1049B009AC3EB0A039342C2
:1020400006931CDD4B4B009A53F82730C2EB0A0273
:10205000C3F1FF030492484A52F823B007AE0DF2D1
:102060001C44002756F8040F013710B15946FEF7FB
:1020700061FABD4244F8040FF4DC069B009387A983
:1020800007AA0023013351F8040F42F8040F9D42C0
:10209000F8DC019B002B05DD059B53F8042D5A60ED
:1020A0009945FAD10023C9F80030039B0AF1010ACF
:1020B000534593DC002D079C09DD304907AA002316
:1020C000013352F8040F41F8040F9D42F8DC284A0E
:1020D0002B492046FFF7D4FD234B1B685A00002AEA
:1020E00007DD284A002002EBC30142F8040B9142AD
:1020F000FBD1002B0EDD03F18040224B013803EBB6
:1021000080000DF61C02043B52F8041F43F8041F24
:102110009842F9D10DF6244DBDE8F08F0DF502641B
:10212000CBE61A469E4600231360009B9E42CEDDFE
:1021300008AB02933FE70023CEF800302DE7019B68
:10214000002B0DF58463ECDD9E4619E76B1E0193B1
:1021500002E7049B0099C3EB0A038B4299DDC1EBB4
:102160000A020492009394E7BC08FF1FAC88FF1F8B
:102170001CE90020881801201CF500200421FF1F05
:102180000821FF1F982AFF1F9C7FFF1F234A2DE96C
:10219000F84F0023DFF8A080214FDFF8A0901360F4
:1021A0000126204B1B68002B1DDB002403F1010BD3
:1021B0002546A24684FB0723E218E317C3EBE2138C
:1021C000C3EB0323E31A344458F8230018B159F839
:1021D0002510FEF7AFF90135AB458AEA000AE9D1CF
:1021E000BAF1000F0CD10D4A0F4B12680B4C196855
:1021F000501C20600D48C6F1FF0340F8223029B979
:102200000136B6F5807FCCD1BDE8F88F084A094980
:102210001268D06832461EF029F9F1E774410120B6
:1022200081808080BC08FF1F7C8A00208084FF1F83
:102230000819FF1F8CF502001CF500200821FF1F64
:102240002DE9F04F7D4D89B0002A079005912A6055
:1022500040F3F28002F180401446794A0138191F98
:1022600002EB8000131F51F8042F43F8042F834220
:10227000F9D1FFF705FEFFF789FF724B1B68039347
:10228000E3B9714B714A069312681B689A4211DBDD
:10229000002B0FDD6E49059D002201E09A422DD0F2
:1022A00051F8040FA84202F10102F7DB039B002B57
:1022B00040F0B280002009B0BDE8F08F624B654D60
:1022C00006931E462B683268D86863491EF0CEF824
:1022D0005E4A3368126893425A4A1268039240F386
:1022E000A780039A002AE5D0002BE3D02B685B4837
:1022F000DB68172201211EF0FFF8DBE70023DFF87F
:102300007C91DFF87C810293554B564A1B680299F9
:102310004FEA430A52F821200492BAF1000F78DD07
:10232000514D0AF18043013B0024291D01EB830B31
:102330002646C2F1FF0784FB0823E218E317C3EB2C
:10234000E21355F8040FC3EB0323E31A3C4418B11E
:1023500059F82310FEF7EEF8AB4586EA0006EAD1FD
:10236000BAF1010F4ED00024404A7F00A346012558
:1023700084FB08012144E317C3EBE11352F8250065
:10238000C3EB0323E31A02353C4428B159F8231068
:102390000192FEF7CFF8019A55458BEA000BE7DB77
:1023A00006B3334B53F82B30C3F1FF03304659F8D3
:1023B0002310FEF7BFF846B2039BBBB9059B049AF6
:1023C0009C1A029A0798631E013211460292C25C5F
:1023D0005640C654069B1B688B4216DD194B1B6882
:1023E000039391E7039B3046002BE7D0194B059AE6
:1023F000049C1B681F49141B0246D86823461EF024
:1024000035F8DEE74FF0000BCAE7012009B0BDE860
:10241000F08F00263046CFE70E4B17491868059B12
:10242000C06822461EF022F8002009B0BDE8F08FF7
:10243000002B7FF756AF2DE700241AE7AC88FF1F6B
:10244000A07FFF1F7C8A002074410120E81FFF1F2E
:102450007C84FF1F0819FF1FB0F5020014F602006C
:10246000BC08FF1F8084FF1F942AFF1F0821FF1F45
:1024700088180120F4F50200C4F502001CF50020C4
:1024800081808080F8B514F007F80D4B0D490E4A95
:102490001B68DFF850E008601060C31A0B4F0C4E49
:1024A0000C4D0D4C0D490E4ACEF8003000F2622062
:1024B0000023386033602B6023600B601360F8BD2D
:1024C0009807FF1F4884FF1F487FFF1FA488FF1F36
:1024D000CC88FF1F448AFF1FC888FF1F8088FF1F0A
:1024E000FC1EFF1FECE800202DE9F041571AADF566
:1024F000487D7E1C00EB8101B20068469846CE9D67
:10250000CF9C16F039FB314668461A4B04221EF068
:1025100049FFDFED197A002FB0EE677A12DBC8EBC6
:1025200006010DEB87023B46D2ED006A994203F1AA
:10253000FF33D4BF37EE267A77EEA67A581CA2F185
:102540000402F1D1C8EB0707013F06EE907A06EED0
:10255000108AF8EEE66AB8EEC66AC7EEA65AC7EE6B
:10256000067AC5ED007AC4ED005A0DF5487DBDE848
:10257000F08100BF6D040000000000002DE9F04371
:102580002DED028B87B004AB0193DFF84C82814DB7
:1025900002AB009308230C46561A17468146FFF7F4
:1025A000A3FFD8F80030760085FB06E59C42A5EB3A
:1025B000E675794E00F0C2809DED027ADDED047A79
:1025C000C8F8004087EE278A376005A903AA2B4682
:1025D0000191009248463A462146FFF785FFD8F818
:1025E00000309C4200F097809DED037ADDED057A86
:1025F000C8F80040C7EE278A3760684B1B78072B66
:1026000032D8DFE803F05252040452520404644CFE
:10261000D4ED007AF1EE000AB8EEE70A19F022FFD5
:102620009FED607AF0EE087AE0EE077AB4EEE78A82
:10263000F1EE10FA4DDCD4ED007AF1EE000AB8EEBE
:10264000E70A19F00FFF9FED587A2368F1EE047A3C
:10265000E0EE077AF4EEE78AF1EE10FACCBF012241
:1026600000220BB1002A37D1504C514D2368514AFA
:102670002868013300212360116020B907B0BDEC48
:10268000028BBDE8F08313F007FF4B4B4B4A1B68EE
:102690001268C01A904202D92368022B61DC2868B4
:1026A00007B0BDEC028BBDE8F0833D4CD4ED007A61
:1026B000F1EE000AB8EEE70A19F0D4FE9FED397A80
:1026C000F0EE087AE0EE077AB4EEE78AF1EE10FA5F
:1026D00054DD2368002BC7D0364E344C33680133A9
:1026E0000022032B3360226043DC314D2868002830
:1026F000C9D13368022BC1DD314C324B22681A60DC
:1027000013F0CAFE0123206018462B6007B0BDEC11
:10271000028BBDE8F08333689F427FF465AFDDED47
:10272000037A9FED296ADDED056A9FED287A67EE51
:10273000867AC7EEA68A78EE878A5EE733689F427C
:102740007FF43AAFDDED027A9FED1F6ADDED046A9A
:102750009FED1E7A67EE867A87EEA68A38EE078AA4
:1027600033E713F099FE1A4A002310602B601846D5
:1027700084E713F091FE104B1860B6E7D4ED007AB1
:10278000F1EE000AB8EEE70A19F06CFE9FED117A3F
:102790005BE700BF56555555FC1EFF1FAC08FF1FD9
:1027A0008C08FF1F6F12033C6F12833CC888FF1F09
:1027B000CC88FF1F448AFF1FECE800209807FF1F0A
:1027C0004884FF1F487FFF1FCDCC4C3E0000000017
:1027D000A488FF1F0AD7A33C8088FF1F2DE9F04F74
:1027E0002DED048B83B0804610989FED6E8ADFED4F
:1027F0006E7A019200284FF000049A4618BFB0EE9E
:10280000678A08F00106012594B1234601200222BF
:10281000DF0748BF50435B1002FB02F2F8D118EA11
:10282000000007D1112D06D001340135002CECD168
:10283000002EF9D02046B8F1000F40F39480DDF867
:1028400004E000278E1E0025014670B100221146CB
:102850002B46013203F00104904203EBD37344EAA8
:1028600041014FEA6303F4D1890036F9023F07EED4
:10287000903A01350EEB0103F8EEE77A5144A84592
:10288000C3ED007A0F60DFD1B8F1010F6BDD0124D9
:102890004FF00209F6EE008A264607EE909AF8EE0F
:1028A000E77A4FEA890BC8EE279A002729EEA80A93
:1028B00019F0B0FC30EE009A29EE009AB0EE690AE9
:1028C00019F0A8FCDDF804C0D646019BDFED375AAD
:1028D000B1005C1825465144724663463846B7EE4F
:1028E000006AD1ED007AB4EC015AD3ED006A25EE0E
:1028F000E77A67EE867AA5EE067A01308642E5EE43
:10290000257A76EEC76A26EE405AE5EC016AD2EDEA
:10291000006A76EEE76A60EE254AE1EC016AD3EDE3
:10292000006A36EE877AF0EE456AA3EC017A92ED02
:10293000007AE9EE064AE9EE256A77EE277A36EE66
:10294000646AE2EC017A75EEE65ACAD14F44B845A2
:10295000DC44DE444E44B8DC4FEA490398454E4619
:1029600001DB994699E7109BBBB1B8F1000F14DD6C
:1029700007EE908A019BF8EEE77A03EB8808D3ED27
:10298000006A86EEA77AA3EC017ADAED006A86EE99
:10299000A77A4345AAEC017AF1D103B0BDEC048BD0
:1029A000BDE8F08FDA0FC940DA0FC9C0000000009F
:1029B000012070472DE9F0410A460D4604461349AF
:1029C000134E144F012013F0D9FF134BDFF84CC006
:1029D000D3F800E061194FF0000805E073453D545D
:1029E000336008BFCCF800808C420DD0306814F8FA
:1029F000015B431CC02DC3F30B03EFD1DCF80020B7
:102A00000132CCF80020E9E7BDE8F0812CF60200A5
:102A1000F089FF1F0C430120D088FF1F2C20FF1FCF
:102A2000F0B5104D104B2E68104F741CC4F30B04FE
:102A3000601CC0F30B00411CC1F30B014A1CC2F324
:102A40000B0202F1010CC5F800C0C0259D5597F896
:102A500001E0BF780C261E5503F800E05F549D543A
:102A6000F0BD00BF2820FF1FA01E01201CC60020B3
:102A700070B5064688B1451E15F8014F1DF092FD50
:102A800020442346427802F00302022A08BFA4F140
:102A90002003DBB22B70002BEED1304670BD00BF9F
:102AA00008B547F2305290422DED028B03462CDCE4
:102AB000434A904203DBBDEC028B184608BDD01A96
:102AC0001CF052FF41EC100B41EC180B19F0ECFB21
:102AD00000223C4B51EC100B1CF0ACFF02460B46A5
:102AE0002FA1D1E900011CF0F1FD2FA3D3E90023B0
:102AF0001DF012FA00283CD0334B3449BDEC028B58
:102B00000A68013218460A6008BDA0F5EA4030386C
:102B10001CF02AFF41EC100B41EC180B19F0C4FB20
:102B20000022284B51EC100B1CF084FF20A3D3E9AA
:102B300000231CF0CDFD20A3D3E900231DF00AFAE9
:102B400010B147F6BC73D8E7B0EE480AF0EE680A59
:102B500019F0AAFB002251EC100B1A4B1CF06AFF73
:102B600013A3D3E900231CF0B3FD1DF013FA0346B1
:102B7000C3E7B0EE480AF0EE680A19F095FB0022B0
:102B800051EC100B0F4B1CF055FF0B46024604A1F5
:102B9000D1E900011CF09AFD1DF0FCF90346ACE7F9
:102BA00000000000004CDDC00000000000EFDFC0AE
:102BB00000000000004CDD400000000000EFDF409E
:102BC000D08AFFFF000034404480FFFF2084FF1FB5
:102BD000F8B5554F554B564C564EDFF8B8E12DED34
:102BE000048B002583FB01233860534A534825603A
:102BF000C9170024C1EB6311514B146004604FF4FA
:102C0000807231604F48CEF8005021461C601EF0A3
:102C10009DF811F029FB4C4B1860012014F06AF864
:102C20004A4B01221A6010F0D9FD3B68484F494ACF
:102C300049493D60494F146049484A4C4A4A0D6031
:102C40003C604A4911607824B3F5FA7F046062D091
:102C500052DDB3F57A7F47D0B3F5FA6F56D13568B8
:102C6000434A444BA5F10A040A3514601D60A5428D
:102C700037DB414E414842494FEA840E6F1C002227
:102C800006EB0E0306EB87077044714443F8042BF0
:102C9000BB4240F8042B41F8042BF7D1394B03EB2E
:102CA0008502D2ED007AF5EE407AF1EE10FA18D1F5
:102CB0009FED359ADFED358A9FED358A03EB0E06E1
:102CC00007EE904AB8EEE70A013420EE090A80EEDA
:102CD000280A19F057FAA54220EE080AA6EC010AC4
:102CE000EEDABDEC048BF8BD3568214A214B6C1F30
:102CF000053514601D60BAE7C82B07D135681C4A3A
:102D00001C4B6C1E013514601D60B0E7194A184B4E
:102D100015681C68ABE73568154A164BEC1E033581
:102D200014601D60A3E700BFD44101201F85EB5153
:102D3000482DFF1F84BB002078DC00204084FF1F4B
:102D4000BC88FF1FD4E20020F808FF1FEC89FF1F9A
:102D50002484FF1FD889FF1F2884FF1F7C56FF1F74
:102D60007808FF1F6216713F0C23FF1F7ABE7F3F5A
:102D7000AC41012030C800201023FF1FD488FF1F62
:102D80005489FF1F001FFF1FDA0FC9400000F042E7
:102D90003BDFFF3FF489FF1F2DE9F04FDFF8D482BE
:102DA000D8F8007083B0772F009000F3F48007EE1E
:102DB000900A944B944ADFF8C092F8EEE77AC3ED9C
:102DC000007A136891499248D1F800E091490133A3
:102DD000792B08BF002313608F4B904A93ED006A54
:102DE00092ED007A8E4BD1F800C019681160F0EEB8
:102DF000675AE7EE465AE645C3ED007AC0ED005A41
:102E000000F3FC80874B884D884C8949894A1868B3
:102E10009FED895A9FED893ADFED892ADFED893AE6
:102E20009FED894ADFED894A4FEA8E031D441C4419
:102E300019441A44B1EE466A0CF1010673460EF1CC
:102E4000010A0CF1FF3B1AE0B0F57A7F00F09080A8
:102E5000B0F5FA6F10D13B2F0EDD9E4500F0988043
:102E60009C4500F09580FDEEE77A13F0010FF8EE37
:102E7000E77A24D135EE275A0133B34224D0D2ED7C
:102E8000007AF5EC016A91ED007AE1EC017AB0EE9E
:102E9000652AA6EEA72AB0F5FA7FF0EE427AE6EEB2
:102EA000077AE4EC017AE2EC017A53D0CCDCC82852
:102EB000E2D13B2FE0DD9E4567D09C4565D00133D4
:102EC000B34235EE675ADAD13B2F2FDD604A9FEDD2
:102ED000616A614B92ED007AD3ED007ADFED5F6AB3
:102EE00025EE065AB4EEC75AF1EE10FAB4EEE75AE0
:102EF00058BFB0EE457AF1EE10FAB4EEE65AD8BFFC
:102F0000F0EE457AF1EE10FA82ED007AC3ED007A28
:102F100058DD40F6FB73524C524D22682868511C14
:102F2000B1F5966F216020F812305FD04E4BBDF89E
:102F3000000019684A1C792A1A6007F1010708BFC6
:102F4000002229F8110008BF1A60C8F8007003B009
:102F5000BDE8F08F3B2F8FDD9E4513D09C4511D0EF
:102F60009A4502D09B457FF47EAFA7EEE25A83E7F5
:102F70003B2F81DD9E4502D09C457FF474AFA7EEC8
:102F8000A35A79E7A7EE835A76E7A7EEA45A73E728
:102F9000A7EE845A70E71C4ADFF8DC9013683349C7
:102FA00039F91300DDED007AD1ED006A154907EE1D
:102FB000100AF8EEE77AB8EEC77AE7EE667AC1ED66
:102FC000007AFFE6DFED2A7AB4EEE75AF1EE10FA66
:102FD00001D504239FE7FDEEC57ACDED017ABDF959
:102FE000043003F50043C3F30F1394E713F006FE18
:102FF0000023D8F800702860236097E79FED0E5AF1
:1030000062E700BFA083FF1FD889FF1FAC410120EA
:10301000747FFF1F30C800200C23FF1F2884FF1F70
:103020002484FF1FD4410120001FFF1F1023FF1F16
:103030005489FF1FD488FF1F00000000C51BD93D25
:103040003E05183F2506C13EB6F3BD3E8D283D3FE7
:10305000F489FF1F8988083C482DFF1F0078FF4630
:103060004084FF1FF808FF1F7808FF1F7C56FF1FD2
:103070000078FFC678DC0020D4E2002010F0010FB9
:103080002DE9F04714BF4FF0FF35012500281CDD66
:103090008146471E0024DFF838A0C5F100080AF574
:1030A000EF76002301E03AF9023FBC4213FB05F042
:1030B0000ABF18FB03F300B218B2FFF76DFEB2456A
:1030C000F1D10134A1454546E5D1BDE8F08700BF07
:1030D000A427030008B540F2DC51C820FFF778FDB3
:1030E000FA20FFF7CBFFBDE8084011F0C7B800BFDA
:1030F0002DE9F04F83B0019009B92B4B19682B488B
:10310000DFF8AC8080FB0130C917C1EBE000FFF7AE
:10311000B5FF4FF0000909EB890AC0270026042EED
:10312000019B2FD013F8093072003B40C2F1060218
:103130001341DBB25C1CC4EB0414C3EB031306EBBA
:103140000A0508EB441408EB431B05F00105A5B97B
:10315000BBF900000BF1020BFFF71EFE5C45F6D138
:103160000136052E4FEA9707D9D109F10109B9F1C6
:10317000020FD0D103B0BDE8F08FBBF80000404291
:1031800000B2E7E71C7806220123C02004EA000110
:103190001141023A4B40911CDBB24FEA9000F5D14D
:1031A00003F00303C6E700BF5808FF1F67666666A3
:1031B000204F0300F8B50D4B0D4F1B6887FB03270D
:1031C000DB17C3EBA7070137002F0EDD0126094CE3
:1031D000002004F1EE0501E034F9020FFFF7DCFDF9
:1031E000AC42F9D10136B742F1DAF8BD982CFF1F95
:1031F00067666666D43B03002DE9F04F9BB01E4620
:103200000EAB02930DAB15AD0DF12F078A4601935E
:1032100000210CAB1446009317911591169118914B
:10322000ADF864101191129113911491C0B20495EC
:10323000039711AB10AA0FA9FDF752FA28B111A8F4
:1032400037491EF0F1FE834610B11BB0BDE8F08F88
:103250002A463449072013F091FB284610F0AEFBB4
:1032600040F2DC51C820FFF7B3FC023C109B94FBFA
:10327000F3F331461C4650460993FFF739FF002C03
:1032800047DD294DCDF81CA0CDF820B0079A92F863
:103290000290D378127903EB092302EB03294FF054
:1032A000150800264FF4600707EA090222FA08F21F
:1032B000D2B20432C2EB021A06F001044FF0000B46
:1032C00008E035F911000BF1010BFFF765FDBBF5C7
:1032D000F07F0ED00BEB4A11002CF2D035F8110024
:1032E000404200B20BF1010BFFF756FDBBF5F07F3A
:1032F000F0D10136082E4FEAE707A8F10308D3D131
:10330000079A089B03320792099A03339A4208935B
:10331000BCDC064B186810F0B1FF1BB0BDE8F08FA5
:1033200044F602004CF60200E06A03004084FF1FEE
:103330002DE9F04196B01F460AAB029309AB11AEDE
:103340000DF11F0E0D460193002108AB14460093AA
:103350001391119112911491ADF854100D910E9199
:103360000F911091C0B20496CDF80CE00DAB0CAAF1
:103370000BA9FDF7B5F920B10DA829491EF054FE9F
:1033800010B116B0BDE8F08132462649072013F08F
:10339000F5FA304610F012FB40F2DC514FF4FA70AF
:1033A000FFF716FC394628460C9B023C94FBF3F4CD
:1033B000FFF79EFE002C2BDD01341B4E2F1901352B
:1033C00015F8013F1B09C3EB03139B019C1E03F27D
:1033D000BE33344406EB030834F9020FFFF7DCFC7C
:1033E000A045F9D12B7803F00F03C3EB03139B0126
:1033F0009C1E03F2BE33344406EB030834F8020F7C
:10340000404200B2FFF7C8FCA045F7D1AF42D7D188
:10341000064B186810F032FF16B0BDE8F08100BF0F
:1034200064F602004CF60200E06A03004084FF1FCD
:103430002DE9F04F99B01E460DAB02930CAB13ACC7
:103440000DF1270E0F46019300210BAB154600939B
:103450001591139114911691ADF85C100F91109184
:1034600011911291C0B20494CDF80CE00FAB0AAAEE
:103470000EA9FDF735F920B10FA82C491EF0D4FD97
:1034800010B119B0BDE8F08F22462949072013F08A
:1034900075FA204610F092FA40F2DC514FF4FA60CF
:1034A000FFF796FB314638460A9C0B9B023D42F6DD
:1034B000E06995FBF4F499FBF3F9FFF719FE002C92
:1034C0002CDD02343B1909F1004ADFF86C800793C8
:1034D00002370AF1FF3A0625C0263C78B9F1000F01
:1034E00004EA060444FA05F40FDD04EB840408EB57
:1034F000C4030AEB8404A3F1020B08EB44043BF978
:10350000020FFFF749FCA345F9D1023DAB1C4FEA7E
:103510009606E2D1079B01379F42DCD1054B186824
:1035200010F0ACFE19B0BDE8F08F00BFFCEC02005B
:103530004CF602004084FF1F842903002DE9F04F60
:103540002DED028BA1B01C4612AB029311AB1BAE4A
:103550000DF13B050A910193002110AB0B9017462A
:1035600000931D911B911C911E91ADF87C10179139
:10357000189119911A91C0B20496039517AB0FAA2E
:1035800013A9FDF7ADF8C0B10F9D6B1E023F97FB6D
:10359000F5F9072B1AD8DFE803F07C7C1915191907
:1035A000196CC94B186810F069FE0C9B1A68002A48
:1035B00003DDC649072013F0E1F921B0BDEC028B11
:1035C000BDE8F08F02239FEDC28A09930B9BC12BAC
:1035D0006FD1C04AC04B12681B68C0490C9113449C
:1035E00003F103090B27CB460024002D2646DFF804
:1035F0001083DDF8249039DD00208646DDF840C0D8
:103600004B460BE038F9112096445A1C042A00F16D
:1036100001000CBF02331346A84213D003EBC302D0
:1036200004EB421120AA1A44BCF1640F02F8306C7A
:10363000E8D1C3EB031204EB4212A94931F912207D
:103640009644E2E707EE90EAF8EEE77A68EE277A2A
:103650000134FDEEE77ACDED077ABDF91C00FFF7E6
:103660009BFB782C5CD00F9D002DC5DCDFED9D7A97
:10367000ECE79D4917A81EF0D7FCDFED9C7A0028E7
:10368000B5EE008A4FF0000308BFB0EE678A0993D9
:103690009CE795499FED968A17A81EF0C5FCDFEDC3
:1036A000957A00284FF0030308BFB0EE678A0993AC
:1036B0008CE732469049072013F060F9304610F04D
:1036C0007DF90F9B012B25D0022B1CD0042B13D08E
:1036D000082B05D140F2DC514FF4FA60FFF778FA7D
:1036E0007E4B0C931A46214600230A98136002274A
:1036F000FFF7FEFC0F9D76E740F2DC514FF47A7045
:10370000FFF766FAECE740F2DC514FF4FA70FFF78E
:103710005FFAE5E740F2DC51C820FFF759FADFE72E
:10372000764917A81EF080FC002840F0F180BBF11C
:10373000000F40F391800A9ACDF820B00BEB0703FD
:10374000D3180D9302EB070AC0234FF00609079325
:103750004FF00008DDF83CC0BCF1000F40F3B18031
:1037600000252E462F46DDF840B0099C22E0012BB3
:1037700042D9A3F1020E4FEA0E1104EBC40252012A
:1037800001EB4E0102EBC10141445D4A32F91120C7
:10379000BF1AB8F1770F08BF00F8303C631C042B48
:1037A00018BF1C4606F10106089B08BF0234B44549
:1037B0001D442FD020AA10191AF80530079A13407B
:1037C00010F8302C43FA09F31344BBF1640F03F0F3
:1037D0000303CCD1012B66D9991E4FEA411EC4EBDD
:1037E00004125201AEEB410102EBC10141443C4ADB
:1037F00032F91120BF1ACCE7190104EBC40201EB26
:103800004301520102EBC10242443D4931F9122009
:103810001744BEE707EE907AF8EEE77A68EE277A6B
:1038200008F10108FDEEE77A17EE900AFFF738F984
:1038300000B2FFF7B1FAB8F1780F8BD1079BA9F16D
:1038400002099B0819F1020F079381D10D9B0AF120
:10385000010A53457FF478AF0B9BC02B7FF4A1AED8
:10386000284A294B146804EB440103EB810117A893
:103870001EF044FD2549174A174B51F824501B6888
:1038800011680F950B446A1E03F1030B072A00F21F
:10389000F680DFE812F0F800F800F400F000F40021
:1038A000F400F40008015900C4EB0412C1EB431109
:1038B000520102EBC1024244094931F91220174476
:1038C00067E7DFED087AA9E74084FF1F6CF6020086
:1038D000CDCCCC3EC8C20020A04101202084FF1FD7
:1038E000D42C03000000000014ED0200713D8A3E5C
:1038F0006666263F1F852B3F4CF6020004ED020052
:103900005CD50200F88A0020D82603004426030074
:10391000CA4917A81EF088FB002840F0D480C84B85
:1039200083FB0B23A3EBEB73002B95DD0A9ADFF8E7
:10393000308303EB43033B44D3180D93D31908930F
:1039400015270026DDF83CC0BCF1000F40F3908045
:103950000024DDF840900898099907941BE001EBDA
:10396000C10E4FEA4E1E03EBC30A0EEBCA0EB6445D
:10397000079D38F91EE075440795772E08BF02F8B9
:10398000303C4B1C042B04F101040CBF02311946DE
:10399000644558444CD090F800A0437890F802E079
:1039A00020AA0A4403EB0A230EEB032312F830EC9F
:1039B0003B417344B9F1640F03F0070313D0032BA9
:1039C000CDD9A3F1040E01EBC10A0EEBCE0E4FEAE6
:1039D0004A1A0AEBCE0EB644079D38F91EE0CEEB2C
:1039E00005050795C9E7032B0FD8C1EB011E4FEA68
:1039F0004E1EC3EB031A0EEBCA0E924DB64435F9B8
:103A00001EE0079D75440795B7E7A3F1040AC1EBD3
:103A1000011ECAEB0A1A4FEA4E1E0EEBCA0E894D62
:103A2000B64435F91EE0079DCEEB05050795A4E7E2
:103A3000079D07EE905AF8EEE77A68EE277A01368E
:103A4000FDEEE77A17EE900AFFF72AF800B2FFF7CB
:103A5000A3F9782E7FF476AF033FFA1C7FF471AFA1
:103A6000089B0D9A03339A4208937FF469AFF3E6FB
:103A7000DFED757AE1E702239FED748A0993002355
:103A80000B930B27B0E572499FED728A17A81EF0C1
:103A9000CBFADFED717A00284FF0030308BFB0EED8
:103AA000678A0993EBE76A4917A81EF0BDFADFEDB4
:103AB0006B7A0028B5EE008A4FF0000308BFB0EE25
:103AC000678A0993DBE7624917A81EF0ADFA002860
:103AD0007FF4C2AEBBF1000F7FF7BEAE0A9ADDF8ED
:103AE00024800BEB070A9244D419F6EE008ACDF835
:103AF00020A004274FF0F0090025DDF83CC0BCF100
:103B0000000F40F397800020064607EE900A4146DA
:103B100007941FE0032B44D8C1EB01125201C3EB01
:103B2000031A02EBCA02474C2A4434F9122017EE5A
:103B3000904A144407EE904A772D08BF0EF8303CA7
:103B40004B1C042B06F101060CBF02311946B4458B
:103B5000584451D0079B1A5C20AB03EB010E09EAD5
:103B600002021EF8303C3A411344072A03F00703CF
:103B7000D0DD032B28D8C1EB01125201C3EB031A8D
:103B800002EBCA022A442F4C34F9122007EE102A05
:103B9000F8EEE77AB8EEC77AE7EE287AFDEEE77A34
:103BA000CAE7A3F1040AC1EB0112CAEB0A1A5201D7
:103BB00002EBCA02234C2A4434F9122017EE904A31
:103BC000A21A07EE902AB7E7A3F1040AC1EB01128B
:103BD000CAEB0A1A520102EBCA022A44194C34F900
:103BE000122007EE102AF8EEE77AB8EEC77AE7EE71
:103BF000687AFDEEE77A9FE7079CF8EEE77A68EED1
:103C0000277A0135FDEEE77A17EE900AFEF748FFB6
:103C100000B2FFF7C1F8782D7FF46FAF043F3B1D72
:103C20004FEA19197FF468AF089B0134A3427FF46F
:103C300060AF11E6DFED047AE1E700BF0CED0200B2
:103C400056555555D42C030000000000CDCCCC3E79
:103C500014ED02006666263F1F852B3F713D8A3EAC
:103C60005CD502002DE9F04F2DED028B9BB09846FC
:103C70000FAB02930EAB15AC0DF12F05089101931C
:103C800000210DAB079017460093179115911691DF
:103C90001891ADF864101191129113911491C0B262
:103CA0000494039511AB0CAA10A9FCF719FD20B1DF
:103CB000CB4911A81EF0B8F920B11BB0BDEC028BA6
:103CC000BDE8F08F2246C749072012F057FE204674
:103CD0000FF074FE079BC02B00F053810D9A322A1F
:103CE00000F075810C9B012B00F05F81022B00F02E
:103CF0006581042B00F05081322A00F04081642A53
:103D00000CBF7825002541460898BE1E96FBF3F6A9
:103D1000FFF7EEF90C9B4FF0020A022B74D0042B34
:103D200000F0BE80012BC8D1002E47DD089B564411
:103D30009A1953440992069300274FF006094FF051
:103D4000C008BA46069B1C78A74B08EA040444FA4C
:103D500009F4C4EB041403EB441BA44B0AF0010761
:103D600003EB041400260EE0322B0CBFBBF900005D
:103D7000B4F900000136FFF70FF8B5420BF1020B62
:103D800004F102040BD00D9B002FEDD0322B0CBFA1
:103D9000BBF90000B4F90000404200B2EAE70AF1C2
:103DA000010ABAF1040F4FEA9808A9F10209C9D132
:103DB000069B099A01339A420693BDD1079BC02BFB
:103DC00069D18B4B1C688B4B04EB440103EB8101E5
:103DD00011A81EF093FA884A884B894916681A6818
:103DE000884B51F8241053F824300C9316440022C9
:103DF000033607924FF00B0A00298ED1089913461B
:103E0000C120FFF79BFB58E7002E44DD089ADFF83E
:103E1000DCB19FED7D8A0AEB0607174492444FF010
:103E200006084FF0C00900249AF800201AF806305E
:103E300009EA020209EA030342FA08F243FA08F324
:103E400008320C33C2EB0212C3EB031304EBC202C1
:103E500004EBC3033BF912203BF91330D31807EEF0
:103E6000903AF8EEE77A013467EE887AFDEEE77A69
:103E7000CDED067ABDF91800FEF78EFFA542D3D12D
:103E8000A8F1020818F1020F4FEA9909CBD10AF103
:103E9000010A5745C3D15D4B186810F0EFF90CE7E4
:103EA000002EF8DD089ADFF844B19FED598A7700BB
:103EB000BB190AEB0609079313464B449244D946B3
:103EC0000893D3464FF006084FF0C00A00249BF831
:103ED00000E01BF80600079B1BF807101BF80330D7
:103EE0000AEA0E0E0AEA00004EFA08FE40FA08F04E
:103EF0000AEA01010EF1040E083041FA08F10AEA5B
:103F00000303CEEB0E1EC0EB00100C3143FA08F396
:103F100004EBCE0E04EBC000C1EB0111103304EB37
:103F2000C101C3EB031339F9100039F91EE039F967
:103F3000111004EBC303864439F9130001EB0E039F
:103F4000034407EE903AF8EEE77A013467EE887A98
:103F5000FDEEE77ACDED067ABDF91800FEF71CFFFD
:103F6000A542B4D1A8F1020818F1020F4FEA9A0A4B
:103F7000ACD1089B0BF1010B5B45A3D18BE7F0257E
:103F8000C1E61B4A234B126853F82230B3F57A7FFF
:103F90000BDBB3F5FA6F11DB40F2DC514FF4FA6042
:103FA000FEF716FE0D9A0C9BA6E640F2DC514FF48C
:103FB000FA70FEF70DFE0D9A0C9B9DE640F2DC5167
:103FC0004FF47A70FEF704FE0D9A0C9B94E640F2D3
:103FD000DC51C820FEF7FCFD0D9A0C9B8CE600BF5F
:103FE000FCEC02004CF60200204F03009CC20200D1
:103FF000F88A0020D8260300C8C20020A041012072
:10400000A0560300442603005C8F023F4084FF1F3C
:10401000713D8A3E242C030030B597B011AB0DF1F1
:104020001F022A4D04930BAB039202930AAA09AB19
:10403000002401920093287813940DAB08AA0CA9D0
:10404000119412941494ADF854400D940E940F945E
:104050001094FCF745FB80B11D490DA81DF0E4FF4D
:1040600068B928781B4AA0F17A03032B1A4B12680F
:104070001B68294617D8FFF7DBF917B030BD174981
:104080000DA81DF0D1FF90B10DA815491DF0CCFF72
:10409000114B104A1B68126890B928782946FFF71F
:1040A000ABF817B030BDFFF7DDFD17B030BD0A4BE0
:1040B000084A1B68126828782946FFF739F9DCE7B7
:1040C00028782946FFF73AFAD7E700BF9023FF1F69
:1040D000FCEC0200D4E300203CC9002064F602009E
:1040E00044F60200FFFFFFFF2DE9F04F8C4D2DED50
:1040F000088B82460FCDADF6CC4D0DF1080B5C461A
:104100000FC40FCD0FC495E8030044F8040B0DF164
:10411000300824F8021B0B0C404682492370982279
:1041200014F02AFD50462D211DF00AFF08B100238E
:1041300003707D4B9FED7D8A1F689FED7DBA9FEDDB
:104140007D9ADFED7D9A9FED70ABF0EE488A0DF120
:10415000C6060DF5D9640DF2C6654FF0000933E0CF
:10416000A4F800906AA3D3E9002351EC1A0B1BF0CA
:1041700061FC69A3D3E900231BF05CFC1BF00AFF80
:1041800078EE8B8A38EE298AF4EEC98AF1EE10FABD
:1041900026F8020FB4EEC98AC8BF78EEC98AF1EEDC
:1041A00010FAC8BF38EE498AB54204F1020418EE8D
:1041B000900A23D01BF0EAFB41EC100B17F03CFFF8
:1041C000B0EE40AAF0EE60AA18EE100A002FC7D198
:1041D0001BF0DCFB41EC100B17F02EFF4CA3D3E9D6
:1041E000002351EC100B1BF025FC4BA3D3E900235B
:1041F0001BF020FC1BF0CEFE2080B3E740F2DC5128
:104200004FF4FA70FEF7E4FC4FF006090DF6C644D1
:104210002E4636F9020FFEF7BFFDA642F9D1B9F1DD
:104220000109F5D10AF1FF3350460193CDF8009012
:104230001EF0C6F8009B834246D2019B584613F8F5
:10424000011F01931DF07CFE00284FD0CBEB00072F
:104250001F2258F827304FF0804603E0013A4FEA1A
:1042600066061ED013EA0601F8D0002E19DD79B1DA
:104270000DF1C60939F9020FFEF78EFD4D45F9D152
:1042800076100ED058F8273003EA06010029EFD146
:10429000A94639F9020FFEF77FFD4C45F9D176109A
:1042A000F0D106262F4637F9020FFEF775FDBC4206
:1042B000F9D1013EF6D1009B5046013300931EF028
:1042C0007FF8009B8342B8D306272E4636F9020FAB
:1042D000FEF762FDB442F9D1013FF6D10DF6CC4DA7
:1042E000BDEC088BBDE8F04F0FF0C8BF06262F4687
:1042F00037F9020FFEF750FDBC42F9D1013EF6D16D
:104300000626CFE7AFF300800000000000000000A9
:10431000000000C0CCCCEC3F000000000064D9409D
:104320007CF60200FCC10200588A00200000000058
:1043300002B9573FDA0FC940B1663A3F2DE9F04F55
:104340001A4BD3F800A0BAF1000F83B02BDD184B45
:10435000019000EB010B894600930126D846B9F184
:10436000000F3746D8BF002115DD124B019C53F8D2
:104370002650002105E0FCF7DDF8A0458BEA00019E
:1043800009D0284614F801BB002DF4D12846A045D9
:104390008BEA0001F5D1009B43F8041F57450093B9
:1043A00006F10106DBDB03B0BDE8F08FBC08FF1FA0
:1043B00018E900201CF500202DE9F04FFF294FF0EF
:1043C0000004C3B01C6058DC914256DDDFF8F8A051
:1043D0000193DAF800309A42154607468B460CD016
:1043E00002EBD273364ACAF800505B101360FCF738
:1043F0004DF8DAF80000FDF7D3FCC5EB0B0606F12B
:10440000FF3907EB0903981B02AA13F8011902F8F8
:10441000011B8342F9D102AB9919CBF1FF04884605
:104420000846224600211CF091FC0BF1FF3B08EBF3
:104430000401002D07EB0B03C8BF481905DD13F875
:10444000012901F8012B8842F9D102A8FF21FFF7C9
:1044500075FFDAF80000002809DD1A4A13681BB15D
:104460000FE052F8041F61B901338342F9D1019B77
:104470000120186043B0BDE8F08F002043B0BDE8D4
:10448000F08F00231A46FF2102A8FDF7D9FE00286D
:10449000F3D002AB3E44994419F8013907F8013BC7
:1044A000BE42F9D1002D08DD35440DF5837313F8B4
:1044B000011906F8011BB542F9D10120DEE700BF62
:1044C000E81FFF1F1CE90020BC08FF1F2DE9F04F6B
:1044D0002E4B1B6899B0002B0493019005920DF1AF
:1044E0001C0A09DB049B0DF11B020AEB03040020EC
:1044F00002F8010FA242FBD1002938DD244A0498BA
:10450000019BD2F800905F1802EB800300F1FF38A6
:10451000029318AB43440393039B17F8011D13F850
:10452000443CB8F1000F81EA030B17DD0AEB0805E4
:10453000029E06E0FBF7FEFF40B26040AA456870AD
:104540000CD056F8043D15F9014D59461846002B7C
:10455000F0D118466040AA456870F2D1B9F1000F59
:104560000DD14846019B8DF81C009F42D4D1049A7E
:104570000598514614F000FB19B0BDE8F08F59467C
:104580004846FBF7D7FFC0B2ECE700BFBC08FF1FEF
:10459000908101202DE9F043154E1C463368151912
:1045A0009C42C1B0174681468846C5F1FF050AD036
:1045B000104A346004EBD4735B101360FBF766FFA2
:1045C0003068FDF7EDFB2A46684600211CF0BEFB73
:1045D0003A4649460DEB050014F0CEFA68464246CD
:1045E000C4F1FF01FFF772FF204641B0BDE8F08340
:1045F000BC08FF1FE81FFF1F2DE9F04F99B00DF118
:104600004C0C0DF1270E0CAE0BAC0DAF8DE8D0406D
:10461000079192461D46CDF810C00FAB0AAA0EA90D
:1046200006460690FCF75CF80C9C002C50D0BAF1C2
:10463000000F51D0002859D02F4B2E701B780A9AAA
:104640007340002A6B7042DD00260235B0464FF001
:104650000209E71C2CE0079B2A70002A03EB0801E3
:1046600005F1010002DD14F087FAD04604F1010BD8
:104670001FFA8BF12846FCF7A7FB069B05EB040EFF
:104680004FEA102CE11C58403A4605F80BC029446B
:104690008EF802000D9B2846FFF77CFF0C9C0D9BBB
:1046A0000A9AE71C01363B44B24299441D4418DD86
:1046B000C8EB0A02A242CEDD2846079B00F8014B58
:1046C00003EB0801224614F057FAA044CEE7022477
:1046D000204619B0BDE8F08F5446204619B0BDE819
:1046E000F08F4C46204619B0BDE8F08F04462046B6
:1046F00019B0BDE8F08F00BF0908FF1F2DE9F04F8A
:104700009BB00DF1540C0DF12F0E0EAE0DAC0FAF92
:104710008DE8D040089191461D46CDF810C011ABF0
:104720000CAA10A906460790FBF7DAFF0E9C002C96
:1047300057D0B9F1000F58D0002851D0594B2E70E6
:104740001B780D9A7340B2F5167F6B7005F1020568
:1047500050DA0C9B002BD8BF022442DD0026B04665
:104760004FF0020AE71C2CE0089B2A70002A03EB9A
:10477000080105F1010002DD14F0FEF9C84604F15C
:10478000010B1FFA8BF12846FCF71EFB079B05EB7C
:10479000040E4FEA102CE11C58403A4605F80BC0B5
:1047A00029448EF802000F9B2846FFF7F3FE0E9C6B
:1047B0000F9B0C9AE71C01363B44B2429A441D44BD
:1047C00061DDC8EB0902A242CEDB2846089B00F857
:1047D000014B03EB0801224614F0CEF9A044CEE7CA
:1047E000044620461BB0BDE8F08F4C4620461BB067
:1047F000BDE8F08FB4F5167FABDB2B4E4FF0030A0C
:104800004FF002080027E21786FB0434A41AC7EB16
:104810000902A2423CDA089B2A70002A03EB070136
:1048200005F1010002DD14F0A7F94F46631C99B2AF
:1048300028460993FCF7C8FA079BDDF83CC04FEA0D
:10484000102E5840099B2919E21C05F803E086FB4D
:104850000C438870A3EBEC73A9182846FFF79AFE67
:104860000E9C0F9B86FB0420E217801A86FB03E157
:104870000330A1EBE3730344BAF1010A98441D44E9
:10488000C2D14446ADE7544620461BB0BDE8F08F88
:104890002846089B00F8014BD919224614F06CF900
:1048A0002744C3E70908FF1F56555555F8B50D466F
:1048B00007462D49284616461C461DF0B5FB18BB79
:1048C000042E0AD0052E34D0062E2ED0072E34D03A
:1048D000BEBB35232370CA2302E031232370CE23CD
:1048E000A61C637038463146FCF7B4F9284604F13B
:1048F0000801FCF7AFF9304604F10E0104230C2245
:10490000FFF748FE1220F8BD3846FBF76DFE08B9E8
:104910000020F8BD2846FBF767FE0028F8D038468F
:10492000FBF762FE0028CBD1F2E733232370CC23C0
:10493000D6E732232370CD23D2E734232370CB2351
:10494000CEE7012E07D0022E09D0032EE0D1382366
:104950002370C723C4E736232370C923C0E7372356
:104960002370C823BCE700BFF0F6020070B5144600
:10497000C1233E22A51C227063700E462946FCF717
:1049800069F9304604F10801FCF764F9284604F19E
:104990000E0104230C22FFF7FDFD122070BD00BFA5
:1049A0002DE9F0411C4C82B01546224606460F46C2
:1049B000FFF7DCFF194B186058B3194BDFF87CC0C8
:1049C000DFF87CE01B68214602464FF4FA68207845
:1049D000CCF800800124CEF80040FFF743F9114BDA
:1049E00000221A6011F058FD0F49104A104BDFF8F1
:1049F00054E0086014601D60CEF8004011F04CFDDA
:104A00000C4900953B46086032460B49072011F0DF
:104A1000B5FF02B0BDE8F0819023FF1FD4E3002072
:104A20005808FF1F9C2CFF1F9C1E0120C488FF1FDD
:104A3000A088FF1F74DC0020F4F60200C4EC002004
:104A40008C1C0120881C0120F8B50D461446064632
:104A5000FBF7CAFD00B9F8BDCF233022A71C637055
:104A6000304639462270FCF7F5F82B7843B904F14B
:104A70000E01384604230C22FFF78CFD1220F8BDEE
:104A8000284604F10801FCF725F9F0E738B5104C89
:104A900011F002FD23680F4AC01A904202D90E4B52
:104AA0001D680DB1002038BD0C4B1D6011F0F4FCE9
:104AB0000B4A20600B490C48FFF7C6FF0B4B084917
:104AC000186010222B463020FFF7CCF8012038BDAB
:104AD00084410120C0270900E8E800208C1C012047
:104AE0009023FF1F348AFF1F58C90020D4E3002001
:104AF0002DE9F041514B524D1B682E68002B14BF1D
:104B0000002306F001030446002B66D107224D491D
:104B10001CF086F8002839D10A224B49E01D1CF010
:104B20007FF80746002831D16EB304F112010A2242
:104B3000464814F021F8202144481DF001FA00B144
:104B40000770434F434E44490120002338600A2236
:104B5000204633601CF064F820B306223F4920460B
:104B60001CF05EF840B92B68002B62D0384F394EEC
:104B7000012200233A603360224639490720BDE80C
:104B8000F04111F0FBBE374811F0C6FE0A2232494F
:104B900020461CF045F80028DFD12B68002B41D0BF
:104BA0002B4F2C4E29480A22A11813F0E5FF202193
:104BB00026481DF0C5F908B1002303700123062221
:104BC00026493B60204633601CF02AF80028D3D1E8
:104BD000012200233A603360CEE71DF0F1FB224D45
:104BE0001F49D5F8008007462246072011F0C6FE6F
:104BF0002E68BB19B3F5FA7F01DDBDE8F0811B4BD0
:104C00004344214618461DF079FB791C0E440D22C1
:104C1000B6F5007FC2550346CABF00232E602B6045
:104C2000BDE8F081204611F077FE114811F074FEC6
:104C300093E70C4811F070FE9EE700BF442DFF1F64
:104C40003884FF1F40F7020048F702006CBB0020C9
:104C50006C7FFF1F6C84FF1F54F7020070F7020087
:104C60002CF7020060F7020084180120A0BB00208E
:104C70001C1F0300F0B5364C364A2378364903EB47
:104C8000C3031A4483B00546072011F077FE23784A
:104C9000012B0AD0314B1B680BB903B0F0BD304873
:104CA00003B0BDE8F040FFF723BF202128461DF0E8
:104CB00047F910B10023037001302A4B1B68002B09
:104CC000E8D0FCF72FF90028E4D0274B1B68002B15
:104CD000E0D0264E264C326826482368142AD8BFD6
:104CE0000A324FF0C201D8BFD20041704FF03D07E9
:104CF000D4BFD1B2F821142B077027DD1E4A1E3B0A
:104D000082FB0372DB17C3EBA20303F007020A4422
:104D10001A4BDFF874E01B681649D2B2052782707F
:104D2000C27002713A463D20CEF80070FEF79AFF3D
:104D300022683368009212492A46072011F01EFEAD
:104D4000064B1B68002BA8D00E48A9E70022DEE71F
:104D50007CBB00209CE9020078F70200688A0020F2
:104D6000DCF702005807FF1F5C07FF1F700E0120D1
:104D700030FD00209023FF1F676666665808FF1FFE
:104D8000A0F70200D0F70200D4E30020024B1B681A
:104D90000BB1FFF7ADBE7047688A002008B5084A1E
:104DA000002319461A20136011F0BEFC054B1B6846
:104DB00023B10548BDE80840FFF79ABE08BD00BF13
:104DC000208AFF1F688A0020ECF7020070B5194B9B
:104DD0001B78312B88B0054624D0174E3468A54285
:104DE0002946A8BF2146641A002C346012DD1348FE
:104DF000224601446D461BF045FF224628461049D5
:104E00001CF0C0FF0F4B1B6813B12846FFF770FE64
:104E100008B070BD04D121461A2011F085FC346819
:104E20006D46EAE702460549074813F0A5FE074B21
:104E30001D60D2E79C88FF1F208AFF1F34FE0020E0
:104E4000F8F70200688A0020B88501203084FF1F2F
:104E500030B5ADF50D5D83B0044611F01DFB404A41
:104E60000023106000930DF59A532146D2AA08330F
:104E70004FF48060FDF7B2FC0DF59D5204A9EBAB39
:104E80000DF2E4600C32F2EC017AB3EC017A67EED9
:104E9000A77A9842E7EE077AE1EC017AF3D1314B39
:104EA00031481B7803EB430300EB83001BF096FAB9
:104EB0002E4BDFED2F6A1B6800EBD07003EB600315
:104EC00007EE903AF8EEE77A2A4B87EEA67A1B783F
:104ED000FDEEC77A17EE901A6329D4BF01F167027D
:104EE000CB22012B03D00DF50D5D03B030BDC1F118
:104EF00067010329B8BF032104A8FDF73FFB1E4C3F
:104F00001E4D20600346A8B12A68AAB91C4A12683F
:104F1000BAB91C4A1C4811680122026061B91B49D8
:104F2000096849B903A942208DF80C300EF048FDFC
:104F3000236801E02B684BB92B600DF50D5D03B0C4
:104F400030BD1348FFF7D4FD2368E2E70C4B1B6824
:104F5000002BDED00F48FFF7CBFD2368D9E700BF59
:104F6000008AFF1FAC08FF1FE0B20300C408FF1F48
:104F700006813B417CBB00208CBB0020E489FF1FE5
:104F8000688A0020988A002024DC00201C84FF1FEF
:104F900004F8020010F802000C4B1B78012B10B52E
:104FA00006D00B4A0B4B12681B68134300D110BD8F
:104FB000044611F071FA084B1B68C01A6328F6D931
:104FC0002046BDE81040FFF743BF00BF7CBB002078
:104FD000988A00201C84FF1F008AFF1F70B50346BB
:104FE000314D324CC0B200EBC000284486B0237073
:104FF00012F042F922782E490120531E0860052B39
:105000000DD8DFE803F0352619261903FCF7C8FB95
:105010002848294922784FF0FF3303600B6002EBE8
:10502000C2022A44684625491CF0ACFE244B1B688A
:10503000002B34D106B070BD0121082011F074FBA3
:105040000021082011F070FB1E4B227800211970FE
:10505000E5E71D4A1D4B00260121082016601E6051
:1050600011F062FB3146082011F05EFB2278D6E792
:10507000174A184B1849002616601E600E60FFF78D
:105080008DFE3146082011F04FFB3146082011F00B
:105090004BFB1249202012F015F92278BFE7684631
:1050A000FFF726FD06B070BD9CE902007CBB002026
:1050B00024DC0020C88A0020F08A00201CF80200AE
:1050C000688A002050C90020948A00208C1C01208E
:1050D00094BB0020C0E20020E88A0020AC15030049
:1050E000034B1B78834201D0FFF778BF704700BFA6
:1050F0007CBB0020F0B583B006460D46334C344FE0
:10510000FCF74EFB334B3448002229461A601DF051
:10511000F5F8314620461CF0CDFEC4F101020244F0
:1051200021462E4813F028FD2D4B1A78082A03BF7C
:105130002C4A2D4B12782C4B29463046FFF7B6FBF4
:10514000386008B903B0F0BD284B00221A6011F096
:10515000A3F9274B274A1B781060022B02D00220AC
:10516000FFF73CFF244A254B012429463E201470BA
:105170001C6012F0A7F829463046FBF791FE8646E0
:105180001F48DFF894C0CDF800E02B46324680F887
:1051900000E01C498CF800E0062011F0EFFB1A4EED
:1051A00011491A481A4BDFF874E03A68194D046047
:1051B0000027087837601B68CEF800404FF4FA6685
:1051C0002E60FEF74FFD204603B0F0BD58C9002009
:1051D000D4E30020C088FF1FA02E012020FD002066
:1051E0001008FF1FAC08FF1F9023FF1F9C2CFF1F00
:1051F0007CBB00209C1E0120FCC40020881C0120D8
:105200000908FF1F2CF8020094BB0020C0E2002018
:105210005808FF1FC4EC0020B4C100208C1C0120E2
:105220002DE9F04FAB4E9BB03568002412941094DA
:1052300011941394ADF850400C940D940E940F9467
:10524000002D47D1A44E3468631C59D0A34F3B684E
:10525000E3B1A34B1B78012B29D0062B12D1002CD4
:105260005DD0DFF8DC82DFF8DC92D8F80030D9F8C6
:105270000020934280F2CC8001330134C8F8003022
:105280003460012528461BB0BDE8F08FDFF8B082FE
:10529000DFF8B092D8F80020D9F800309A42D8DB75
:1052A0008F4C2378062B00F00481012BEAD18D4925
:1052B0000A68002AE6DD8C48036801339A420360DD
:1052C0008A4A03DB1368002B40F0ED8000230B605B
:1052D0001360D7E7FFF762FD8549072011F04EFB09
:1052E000204611F007FD7E4B1B78012B02D00120D8
:1052F000FFF774FE0025284635601BB0BDE8F08F2F
:105300007C49072011F03AFB754B1B78012B02D02A
:105310000120FFF763FE002011F0ECFCB2E715A8B6
:105320007549764D1CF0C6FD0322754913F024FC27
:1053300004E00134B4F5807F00F04081284615A9CF
:105340001CF072FE12350028F3D1E4B26D4BDFF889
:10535000F8A1039310AA0AA909AB04920CAD08AAFC
:1053600020460291019300922B4607AA0BA98AF8C6
:105370000040FBF7B5F9099A079B3C6862499AF827
:105380000070DFF8BC81DFF8BC910F7003FB02F303
:105390009C42A8BF1C46D9F80030002B35D05B4B8F
:1053A00001221A6033685A4A8AF8007001334FF4B8
:1053B000C8713360116000235649C8F80030284690
:1053C0001CF032FE002855D0534928461CF02CFE14
:1053D000002800F0CD80284650491CF025FE00280A
:1053E00040F0B480224638464D4B4E494E4DFFF7B3
:1053F00085F902462860002C40F0E78048494B4B75
:1054000008781B68FDF7F8FE3BE7404A1360C9E7E0
:105410004FF4C870464C11F0DDF911F03DF82368E7
:10542000444AC01A904200F2B480DFF8DCB0354B39
:10543000039310AA0AAC09A904920CAD08AA2B4642
:105440000294019100920BA907AA9BF80000DFF8D3
:10545000F8A0FBF745F90999079B3C689BF80020E9
:1054600003FB01F382F001079C42A8BF1C468BF8A6
:10547000007090E722463846294B2A492A4DFFF70B
:105480003DF902462860002C40F09A809AF80030DE
:1054900023497A3B032B254B08781B6800F28B804D
:1054A000FDF7C6FFEDE610F0F7FF234B012518606E
:1054B000E8E62249072011F061FA2378012B02D097
:1054C0000120FFF78BFD114B00201860054611F0FD
:1054D00011FCD7E69C2CFF1F9CEC0020208AFF1FAC
:1054E0007CBB0020A088FF1F881C0120C488FF1FF0
:1054F0007CF80200ACF802004807FF1FE0580300E8
:1055000030F90200A8BD0020DCEC00208C1C01203A
:10551000C4EC0020FCEC020064F6020044F6020039
:105520009023FF1F34FE0020D4E300203CC900205C
:1055300084410120C027090074DC0020ECF802003F
:10554000B0850120A88A0020C8E200202246384603
:10555000254B2649264DFFF74FF802462860002CC0
:1055600038D12149234B08781B68FDF7E7FF88E60F
:10557000224638461C4B1D491D4DFFF7BFF8024619
:10558000286064BB18491B4B08781B68FDF7D0FEE8
:1055900077E615AA18491948FFF756FA144B15A9CA
:1055A0001860102200233020FEF75CFB10F074FF1F
:1055B0000125206066E6FEF755FB62E60024C5E69D
:1055C0002046FFF703FC2A6860E72046FFF7FEFB52
:1055D0002A6813E72046FFF7F9FB2A68C1E720464F
:1055E000FFF7F4FB2A68CDE79023FF1F34FE00206D
:1055F000D4E300203CC90020348AFF1F888A0020A1
:10560000F8B51A4D286800B9F8BD1949072011F0FE
:10561000B5F9184B1B688BB9174A184B184E194827
:10562000194912684FF4FA6701241F60002334609F
:1056300004600B602B602AB12046F8BD1348FFF7C9
:1056400057FAE9E7124B134A1878134B134F1B68AC
:1056500029260225704011465070167030462A46A1
:105660003D60FEF7FFFA2046F8BD00BFE88A002043
:1056700034F90200688A0020EC89FF1FC4EC002086
:10568000881C0120E8E800208C1C012080F9020021
:105690000908FF1F9023FF1F5808FF1FD4E30020B5
:1056A000844B1B686BB9F0B5834C2378022B85B013
:1056B00008D0042B03D18149072011F05FF905B010
:1056C000F0BD7047FFF79CFF05460028F7D1FFF7B4
:1056D000DDF97B4B1A68002A7FDD7A4C7A49072076
:1056E00011F04CF92B4621466A467848FBF7FAFD43
:1056F000774A784B05461560207801221A60FBF73F
:10570000DFFD0138072863D8DFE800F0564A623E23
:1057100062626204704B714A1B6803F63403B3F58E
:105720007A7FB8BF4FF47A73136010F0B5FE6C4AFD
:105730006C4E10606C4B6D4901200322306068464E
:105740001A701CF071FC00287AD0694968461CF078
:105750006BFC002800F0998068466649664E1CF094
:1057600063FC002840F081802A4633462078634954
:10577000FEF7C4FF6249634B02460A6030781B683B
:105780003146FDF739FD9AE7534B544A1B6803F243
:105790006C73B3F57A7FB8BF4FF47A731360C4E7C4
:1057A0004D4B4E4A1B6803F2A463B3F57A7FB8BF32
:1057B0004FF47A731360B8E7474B484A1B6803F20B
:1057C000DC53B3F57A7FB8BF4FF47A731360ACE75C
:1057D000424B4FF4FA621A60A7E72378042B02D0F9
:1057E0000420FFF7FBFB3F4B3C4C454F01221A6066
:1057F00010F052FE384B3A491B68364A086003F5F0
:10580000FA63B3F57A7FB8BF4FF47A73002123604F
:105810001160FFF7C3FA3C4B374C1A783B4B2426F8
:10582000022572402146304662701B6826702A4667
:105830003D60FEF717FA3649072011F09FF83EE762
:105840002D4E2E4920782A463346FEF757FF2378FF
:105850002B497A3B032B2B4B086002461B683078A0
:10586000314623D8FDF7E4FD29E72A463346207860
:105870002249FEF7C1FE2249224B02460A603078D7
:105880001B683146FDF75AFE19E71B4E20781B496D
:105890002A463346FEF732FF19491A4B02460A6080
:1058A00030781B683146FDF743FD08E7FEF7DAF96B
:1058B00005E700BFE8E800207CBB0020A4F9020057
:1058C000208AFF1F2C8AFF1FECF902001C8AFF1F91
:1058D000288AFF1FF48A0020C088FF1FC4EC002024
:1058E0009C1E01208C1C0120FCC40020FCEC02004A
:1058F00064F6020044F602009023FF1F34FE0020ED
:10590000D4E300203CC900200908FF1F5808FF1FEE
:1059100034FA02002DE9F0438D4D2C6895B0002C2F
:1059200044D18C4D2B689BB98B4D2B78022B54D0D6
:10593000042B52D0032B5BD0052B59D02C78012C93
:1059400000F0AA80854B1C68204615B0BDE8F083A6
:10595000834E824F32683C600132052A326040F348
:105960008A80DFF82882D8F80030002B40F0A88029
:1059700068467C4A7C491CF005FAD8F80030002BB8
:1059800040F0A88000232B603B60FFF707FA724BC2
:105990001B78012B02D00120FFF720FB002333608E
:1059A000FBF7FEFE204615B0BDE8F083FFF7F6F9E1
:1059B000694B1B78012B02D00120FFF70FFBFBF78F
:1059C000EFFE00246549634A654B0C6020462C605D
:1059D00014601C6015B0BDE8F083FFF711FE0028CD
:1059E0006CD12B78DFF87091022B21D0042BA1D140
:1059F00010F052FD5D4B5E4A1B685E491268C01A8A
:105A0000A1FB0030B2EB901F98D25B4E3468002CA3
:105A100094D15A49072010F0B1FF504A0123336056
:105A2000146010F039FD564B00F57A701860B9E734
:105A3000DFF88C8198F80070012F4FD0052FD7D157
:105A4000474E504A336812680133934233604DDD4C
:105A50000120FFF7C3FA09236846424A4A4988F8F9
:105A600000301CF08FF9494B1B68002B96D068461C
:105A7000FFF73EF892E74649072010F07FFF454BBD
:105A8000454A1B784549292483F0290302201470D4
:105A900053700860012485E741490A68002A13DD34
:105AA0002F48036801339A4203603E4B02DB1A68B9
:105AB000002A3BD100240C601C6073E7002471E7CE
:105AC0003948FFF715F853E7384A254B002414608E
:105AD0001C6067E76846FFF70BF853E7204E294A3A
